{
  "contractName": "User",
  "abi": [
    {
      "inputs": [
        {
          "internalType": "address",
          "name": "",
          "type": "address"
        }
      ],
      "name": "users",
      "outputs": [
        {
          "internalType": "address",
          "name": "uid",
          "type": "address"
        }
      ],
      "stateMutability": "view",
      "type": "function",
      "constant": true
    },
    {
      "inputs": [
        {
          "internalType": "address",
          "name": "_uid",
          "type": "address"
        }
      ],
      "name": "createUser",
      "outputs": [],
      "stateMutability": "nonpayable",
      "type": "function"
    },
    {
      "inputs": [
        {
          "internalType": "address",
          "name": "_uid",
          "type": "address"
        },
        {
          "internalType": "uint256",
          "name": "_matchid",
          "type": "uint256"
        },
        {
          "internalType": "string[5][11]",
          "name": "_players",
          "type": "string[5][11]"
        }
      ],
      "name": "createTeam",
      "outputs": [
        {
          "internalType": "string",
          "name": "",
          "type": "string"
        }
      ],
      "stateMutability": "nonpayable",
      "type": "function"
    }
  ],
  "bytecode": "0x608060405234801561001057600080fd5b5061132d806100206000396000f3fe608060405234801561001057600080fd5b50600436106100415760003560e01c80636bb9982b14610046578063a87430ba14610076578063cdd87618146100a6575b600080fd5b610060600480360381019061005b9190610e80565b6100c2565b60405161006d9190610f77565b60405180910390f35b610090600480360381019061008b9190610f99565b6108eb565b60405161009d9190610fd5565b60405180910390f35b6100c060048036038101906100bb9190610f99565b610929565b005b606060008060008673ffffffffffffffffffffffffffffffffffffffff1673ffffffffffffffffffffffffffffffffffffffff1681526020019081526020016000209050600b816001016000868152602001908152602001600020600001805490501415610168576040518060400160405280601781526020017f7465616d20637265617465642070726576696f75736c790000000000000000008152509150506108e4565b600b80146101ae576040518060400160405280601b81526020017f7465616d2073686f756c64206861766520313120706c617965727300000000008152509150506108e4565b6000806000806000806000805b600b81101561052d576101fc8b82600b81106101da576101d9610ff0565b5b60200201516001600581106101f2576101f1610ff0565b5b60200201516109b2565b84610207919061104e565b935060016102438c83600b811061022157610220610ff0565b5b602002015160036005811061023957610238610ff0565b5b60200201516109b2565b141561025c578280610254906110ae565b9350506102ac565b60016102968c83600b811061027457610273610ff0565b5b602002015160046005811061028c5761028b610ff0565b5b60200201516109b2565b14156102ab5781806102a7906110ae565b9250505b5b6040518060400160405280600681526020017f4261747465720000000000000000000000000000000000000000000000000000815250805190602001208b82600b81106102fc576102fb610ff0565b5b602002015160006005811061031457610313610ff0565b5b6020020151805190602001201415610335578780610331906110f7565b9850505b6040518060400160405280600681526020017f426f6c6c65720000000000000000000000000000000000000000000000000000815250805190602001208b82600b811061038557610384610ff0565b5b602002015160006005811061039d5761039c610ff0565b5b60200201518051906020012014156103be5786806103ba906110f7565b9750505b6040518060400160405280600a81526020017f416c6c526f756e64657200000000000000000000000000000000000000000000815250805190602001208b82600b811061040e5761040d610ff0565b5b602002015160006005811061042657610425610ff0565b5b6020020151805190602001201415610447578580610443906110f7565b9650505b6040518060400160405280600681526020017f4b65657065720000000000000000000000000000000000000000000000000000815250805190602001208b82600b811061049757610496610ff0565b5b60200201516000600581106104af576104ae610ff0565b5b60200201518051906020012014156104d45784806104cc906110f7565b95505061051a565b6040518060400160405280601581526020017f6e6f742076616c696420706c617965722074797065000000000000000000000081525099505050505050505050506108e4565b8080610525906110f7565b9150506101bb565b50606483111561055f576040518060600160405280602b8152602001611230602b9139985050505050505050506108e4565b600484868961056e919061104e565b610578919061104e565b10156105a65760405180608001604052806043815260200161127d60439139985050505050505050506108e4565b600485876105b4919061104e565b10156105e2576040518060600160405280603881526020016112c060389139985050505050505050506108e4565b6001821461062f576040518060400160405280601b81526020017f74686572652073686f756c64206265206f6e65206361707461696e0000000000815250985050505050505050506108e4565b6001811461067c576040518060400160405280601b81526020017f74686572652073686f756c64206265206f6e65206361707461696e0000000000815250985050505050505050506108e4565b60018410156106ad5760405180606001604052806022815260200161125b60229139985050505050505050506108e4565b60008860010160008d8152602001908152602001600020905060005b600b8110156108a157816000016040518060a001604052806107198f85600b81106106f7576106f6610ff0565b5b602002015160026005811061070f5761070e610ff0565b5b60200201516109b2565b81526020018e84600b811061073157610730610ff0565b5b602002015160006005811061074957610748610ff0565b5b6020020151815260200161078b8f85600b811061076957610768610ff0565b5b602002015160016005811061078157610780610ff0565b5b60200201516109b2565b81526020018e84600b81106107a3576107a2610ff0565b5b60200201516003600581106107bb576107ba610ff0565b5b602002015181526020018e84600b81106107d8576107d7610ff0565b5b60200201516004600581106107f0576107ef610ff0565b5b60200201518152509080600181540180825580915050600190039060005260206000209060050201600090919091909150600082015181600001556020820151816001019080519060200190610847929190610a4c565b5060408201518160020155606082015181600301908051906020019061086e929190610a4c565b50608082015181600401908051906020019061088b929190610a4c565b5050508080610899906110f7565b9150506106c9565b506040518060400160405280600b81526020017f7375636365737366756c6c00000000000000000000000000000000000000000081525099505050505050505050505b9392505050565b60006020528060005260406000206000915090508060000160009054906101000a900473ffffffffffffffffffffffffffffffffffffffff16905081565b60008060008373ffffffffffffffffffffffffffffffffffffffff1673ffffffffffffffffffffffffffffffffffffffff1681526020019081526020016000209050818160000160006101000a81548173ffffffffffffffffffffffffffffffffffffffff021916908373ffffffffffffffffffffffffffffffffffffffff1602179055505050565b6000808290506000809250600090505b8151811015610a455760008282815181106109e0576109df610ff0565b5b602001015160f81c60f81b60f81c60ff16905060308110158015610a05575060398111155b15610a3157603081610a179190611140565b600a85610a249190611174565b610a2e919061104e565b93505b508080610a3d906110f7565b9150506109c2565b5050919050565b828054610a58906111fd565b90600052602060002090601f016020900481019282610a7a5760008555610ac1565b82601f10610a9357805160ff1916838001178555610ac1565b82800160010185558215610ac1579182015b82811115610ac0578251825591602001919060010190610aa5565b5b509050610ace9190610ad2565b5090565b5b80821115610aeb576000816000905550600101610ad3565b5090565b6000604051905090565b600080fd5b600080fd5b600073ffffffffffffffffffffffffffffffffffffffff82169050919050565b6000610b2e82610b03565b9050919050565b610b3e81610b23565b8114610b4957600080fd5b50565b600081359050610b5b81610b35565b92915050565b6000819050919050565b610b7481610b61565b8114610b7f57600080fd5b50565b600081359050610b9181610b6b565b92915050565b600080fd5b6000601f19601f8301169050919050565b7f4e487b7100000000000000000000000000000000000000000000000000000000600052604160045260246000fd5b610be582610b9c565b810181811067ffffffffffffffff82111715610c0457610c03610bad565b5b80604052505050565b6000610c17610aef565b9050610c238282610bdc565b919050565b600067ffffffffffffffff821115610c4357610c42610bad565b5b602082029050919050565b600080fd5b600067ffffffffffffffff821115610c6e57610c6d610bad565b5b602082029050919050565b600080fd5b600067ffffffffffffffff821115610c9957610c98610bad565b5b610ca282610b9c565b9050602081019050919050565b82818337600083830152505050565b6000610cd1610ccc84610c7e565b610c0d565b905082815260208101848484011115610ced57610cec610c79565b5b610cf8848285610caf565b509392505050565b600082601f830112610d1557610d14610b97565b5b8135610d25848260208601610cbe565b91505092915050565b6000610d41610d3c84610c53565b610c0d565b90508060208402830185811115610d5b57610d5a610c4e565b5b835b81811015610da257803567ffffffffffffffff811115610d8057610d7f610b97565b5b808601610d8d8982610d00565b85526020850194505050602081019050610d5d565b5050509392505050565b600082601f830112610dc157610dc0610b97565b5b6005610dce848285610d2e565b91505092915050565b6000610dea610de584610c28565b610c0d565b90508060208402830185811115610e0457610e03610c4e565b5b835b81811015610e4b57803567ffffffffffffffff811115610e2957610e28610b97565b5b808601610e368982610dac565b85526020850194505050602081019050610e06565b5050509392505050565b600082601f830112610e6a57610e69610b97565b5b600b610e77848285610dd7565b91505092915050565b600080600060608486031215610e9957610e98610af9565b5b6000610ea786828701610b4c565b9350506020610eb886828701610b82565b925050604084013567ffffffffffffffff811115610ed957610ed8610afe565b5b610ee586828701610e55565b9150509250925092565b600081519050919050565b600082825260208201905092915050565b60005b83811015610f29578082015181840152602081019050610f0e565b83811115610f38576000848401525b50505050565b6000610f4982610eef565b610f538185610efa565b9350610f63818560208601610f0b565b610f6c81610b9c565b840191505092915050565b60006020820190508181036000830152610f918184610f3e565b905092915050565b600060208284031215610faf57610fae610af9565b5b6000610fbd84828501610b4c565b91505092915050565b610fcf81610b23565b82525050565b6000602082019050610fea6000830184610fc6565b92915050565b7f4e487b7100000000000000000000000000000000000000000000000000000000600052603260045260246000fd5b7f4e487b7100000000000000000000000000000000000000000000000000000000600052601160045260246000fd5b600061105982610b61565b915061106483610b61565b9250827fffffffffffffffffffffffffffffffffffffffffffffffffffffffffffffffff038211156110995761109861101f565b5b828201905092915050565b6000819050919050565b60006110b9826110a4565b91507f7fffffffffffffffffffffffffffffffffffffffffffffffffffffffffffffff8214156110ec576110eb61101f565b5b600182019050919050565b600061110282610b61565b91507fffffffffffffffffffffffffffffffffffffffffffffffffffffffffffffffff8214156111355761113461101f565b5b600182019050919050565b600061114b82610b61565b915061115683610b61565b9250828210156111695761116861101f565b5b828203905092915050565b600061117f82610b61565b915061118a83610b61565b9250817fffffffffffffffffffffffffffffffffffffffffffffffffffffffffffffffff04831182151516156111c3576111c261101f565b5b828202905092915050565b7f4e487b7100000000000000000000000000000000000000000000000000000000600052602260045260246000fd5b6000600282049050600182168061121557607f821691505b60208210811415611229576112286111ce565b5b5091905056fe746f74616c2073756d206f6620706f696e74732073686f756c64206265206c657373207468616e2031303074686572652073686f756c642062652061746c65617374206f6e65206b656570657261746c65617374203420626174746572732073686f756c6420626520746865726520696e636c7564696e67206b656570657220616e6420616c6c20726f756e6465727361746c65617374203420626f6c6c6572732073686f756c6420626520746865726520696e636c7564696e6720616c6c20726f756e64657273a264697066735822122058de8d94985ec42649309f5714392e76df1058f983810483032171063f3a523f64736f6c63430008090033",
  "immutableReferences": {},
  "source": "// SPDX-License-Identifier: MIT\n\npragma solidity ^0.8.6;\n\ncontract User {\n\tstruct crickter {\n\t\tuint256 playerid;\n\t\tstring playerType;\n\t\tuint256 playerPoints;\n\t\tstring isCaptain;\n\t\tstring isVCaptain;\n\t}\n\tstruct teams {\n\t\tcrickter[] players;\n\t}\n\n\tstruct user {\n\t\taddress uid;\n\t\tmapping(uint256 => teams) createdTeams;\n\t}\n\tmapping(address => user) public users;\n\n\tfunction createUser(address _uid) public {\n\t\tuser storage usera = users[_uid];\n\t\tusera.uid = _uid;\n\t}\n\n\tfunction stringToUint(string memory s) private returns (uint256 result) {\n\t\tbytes memory b = bytes(s);\n\t\tuint256 i;\n\t\tresult = 0;\n\t\tfor (i = 0; i < b.length; i++) {\n\t\t\tuint256 c = uint256(uint8(b[i]));\n\n\t\t\tif (c >= 48 && c <= 57) {\n\t\t\t\tresult = result * 10 + (c - 48);\n\t\t\t}\n\t\t}\n\t}\n\n\tfunction createTeam(\n\t\taddress _uid,\n\t\tuint256 _matchid,\n\t\tstring[5][11] memory _players\n\t) public returns (string memory) {\n\t\tuser storage usera = users[_uid];\n\t\tif (usera.createdTeams[_matchid].players.length == 11) {\n\t\t\treturn \"team created previously\";\n\t\t}\n\t\tif (_players.length != 11) {\n\t\t\treturn \"team should have 11 players\";\n\t\t}\n\t\tuint256 battercount = 0;\n\t\tuint256 bollercount = 0;\n\t\tuint256 allroundercount = 0;\n\t\tuint256 keepercount = 0;\n\t\tuint256 totalpoints = 0;\n\t\tint256 captain = 0;\n\t\tint256 vcaptain = 0;\n\t\tfor (uint256 i = 0; i < _players.length; i++) {\n\t\t\ttotalpoints = totalpoints + stringToUint(_players[i][1]);\n\t\t\tif (stringToUint(_players[i][3]) == 1) {\n\t\t\t\tcaptain++;\n\t\t\t} else if (stringToUint(_players[i][4]) == 1) {\n\t\t\t\tvcaptain++;\n\t\t\t}\n\t\t\tif (keccak256(bytes(_players[i][0])) == keccak256(bytes(\"Batter\"))) {\n\t\t\t\tbattercount++;\n\t\t\t}\n\t\t\tif (keccak256(bytes(_players[i][0])) == keccak256(bytes(\"Boller\"))) {\n\t\t\t\tbollercount++;\n\t\t\t}\n\t\t\tif (keccak256(bytes(_players[i][0])) == keccak256(bytes(\"AllRounder\"))) {\n\t\t\t\tallroundercount++;\n\t\t\t}\n\t\t\tif (keccak256(bytes(_players[i][0])) == keccak256(bytes(\"Keeper\"))) {\n\t\t\t\tkeepercount++;\n\t\t\t} else {\n\t\t\t\treturn \"not valid player type\";\n\t\t\t}\n\t\t}\n\t\tif (totalpoints > 100) {\n\t\t\treturn \"total sum of points should be less than 100\";\n\t\t}\n\t\tif (battercount + allroundercount + keepercount < 4) {\n\t\t\treturn\n\t\t\t\t\"atleast 4 batters should be there including keeper and all rounders\";\n\t\t}\n\t\tif (bollercount + allroundercount < 4) {\n\t\t\treturn \"atleast 4 bollers should be there including all rounders\";\n\t\t}\n\t\tif (captain != 1) {\n\t\t\treturn \"there should be one captain\";\n\t\t}\n\t\tif (vcaptain != 1) {\n\t\t\treturn \"there should be one captain\";\n\t\t}\n\t\tif (keepercount < 1) {\n\t\t\treturn \"there should be atleast one keeper\";\n\t\t} else {\n\t\t\tteams storage tempteam = usera.createdTeams[_matchid];\n\t\t\tfor (uint256 i = 0; i < _players.length; i++) {\n\t\t\t\ttempteam.players.push(\n\t\t\t\t\tcrickter({\n\t\t\t\t\t\t\n\t\t\t\t\t\tplayerType: _players[i][0],\n\t\t\t\t\t\tplayerPoints: stringToUint(_players[i][1]),\n            playerid: stringToUint(_players[i][2]),\n\t\t\t\t\t\tisCaptain: _players[i][3],\n\t\t\t\t\t\tisVCaptain: _players[i][4]\n\t\t\t\t\t})\n\t\t\t\t);\n\t\t\t}\n\t\t\treturn \"successfull\";\n\t\t}\n\t}\n}\n\n// [ [\"Batter\",\"9\",\"1\",\"0\",\"1\"], [\"Boller\",\"9\",\"2\",\"0\",\"1\"], [\"Keeper\",\"9\",\"3\",\"0\",\"1\"], [\"Boller\",\"1\",\"4\",\"0\",\"1\"], [\"Boller\",\"1\",\"5\",\"0\",\"1\"], [\"Boller\",\"1\",\"6\",\"0\",\"1\"], [\"Batter\",\"9\",\"7\",\"0\",\"1\"], [\"Batter\",\"9\",\"8\",\"0\",\"1\"], [\"Batter\",\"9\",\"9\",\"0\",\"1\"], [\"Batter\",\"9\",\"10\",\"0\",\"1\"], [\"Batter\",\"9\",\"11\",\"0\",\"1\"] ]",
  "sourcePath": "/home/hardik_here/Documents/html_hacks_nasa/smart-contract/contracts/User.sol",
  "compiler": {
    "name": "solc",
    "version": "0.8.9+commit.e5eed63a.Emscripten.clang"
  },
  "schemaVersion": "3.4.3",
  "updatedAt": "2021-10-30T17:03:45.720Z",
  "networkType": "ethereum",
  "devdoc": {
    "kind": "dev",
    "methods": {},
    "version": 1
  },
  "userdoc": {
    "kind": "user",
    "methods": {},
    "version": 1
  }
}