{
  "contractName": "User",
  "abi": [
    {
      "inputs": [
        {
          "internalType": "address",
          "name": "",
          "type": "address"
        }
      ],
      "name": "users",
      "outputs": [
        {
          "internalType": "address",
          "name": "uid",
          "type": "address"
        }
      ],
      "stateMutability": "view",
      "type": "function"
    },
    {
      "inputs": [
        {
          "internalType": "address",
          "name": "_uid",
          "type": "address"
        }
      ],
      "name": "createUser",
      "outputs": [],
      "stateMutability": "nonpayable",
      "type": "function"
    },
    {
      "inputs": [
        {
          "internalType": "address",
          "name": "_uid",
          "type": "address"
        },
        {
          "internalType": "uint256",
          "name": "_matchid",
          "type": "uint256"
        },
        {
          "internalType": "string[5][11]",
          "name": "_players",
          "type": "string[5][11]"
        }
      ],
      "name": "createTeam",
      "outputs": [
        {
          "internalType": "string",
          "name": "",
          "type": "string"
        }
      ],
      "stateMutability": "nonpayable",
      "type": "function"
    }
  ],
  "bytecode": "0x608060405234801561001057600080fd5b50610d29806100206000396000f3fe608060405234801561001057600080fd5b50600436106100415760003560e01c80636bb9982b14610046578063a87430ba1461006f578063cdd87618146100b0575b600080fd5b6100596100543660046108b3565b6100ea565b6040516100669190610a5d565b60405180910390f35b61009861007d366004610898565b6000602081905290815260409020546001600160a01b031681565b6040516001600160a01b039091168152602001610066565b6100e86100be366004610898565b6001600160a01b0316600081815260208190526040902080546001600160a01b0319169091179055565b005b6001600160a01b038316600090815260208181526040808320858452600181019092529091205460609190600b141561015857505060408051808201909152601781527f7465616d20637265617465642070726576696f75736c79000000000000000000602082015261075c565b6000806000806000806000805b600b81101561044b576101958b82600b811061018357610183610bff565b602002015160015b6020020151610763565b61019f9085610b30565b93506101c28b82600b81106101b6576101b6610bff565b6020020151600361018b565b600114156101dc57826101d481610bb9565b935050610213565b6101fd8b82600b81106101f1576101f1610bff565b6020020151600461018b565b60011415610213578161020f81610bb9565b9250505b6040805180820190915260068152652130ba3a32b960d11b6020909101527f0e5413dafc05cd2faa15659240c51e738dd49afe24a99eb59a92c2225f8db8e58b82600b811061026457610264610bff565b60200201516000602002015180519060200120141561028b578761028781610bd9565b9850505b6040805180820190915260068152652137b63632b960d11b6020909101527f4f77ece33a22507cb138f8f62145caeaff0e57cd0c5df0d8db125565fd720c008b82600b81106102dc576102dc610bff565b60200201516000602002015180519060200120141561030357866102ff81610bd9565b9750505b60408051808201909152600a81526920b6362937bab73232b960b11b6020909101527f977c547bab111247f698d35fe6aee5d806e009624d686b49d2f85f27a389e41f8b82600b811061035857610358610bff565b60200201516000602002015180519060200120141561037f578561037b81610bd9565b9650505b60408051808201909152600681526525b2b2b832b960d11b6020909101527f4f78afe9dfc9a0cb0441c27b9405070cd2a48b490636a7bdd09f355e33a5d7de8b82600b81106103d0576103d0610bff565b6020020151600060200201518051906020012014156103fb57846103f381610bd9565b955050610439565b604051806040016040528060158152602001746e6f742076616c696420706c61796572207479706560581b815250995050505050505050505061075c565b8061044381610bd9565b915050610165565b50606483111561047d576040518060600160405280602b8152602001610c2c602b91399850505050505050505061075c565b60048461048a878a610b30565b6104949190610b30565b10156104c257604051806080016040528060438152602001610c79604391399850505050505050505061075c565b60046104ce8688610b30565b10156104fc57604051806060016040528060388152602001610cbc603891399850505050505050505061075c565b81600114610549576040518060400160405280601b81526020017f74686572652073686f756c64206265206f6e65206361707461696e00000000008152509850505050505050505061075c565b80600114610596576040518060400160405280601b81526020017f74686572652073686f756c64206265206f6e65206361707461696e00000000008152509850505050505050505061075c565b60018410156105c757604051806060016040528060228152602001610c57602291399850505050505050505061075c565b60008b81526001890160205260408120905b600b81101561072b57816000016040518060a001604052806106128f85600b811061060657610606610bff565b6020020151600261018b565b81526020018e84600b811061062957610629610bff565b602002015160006020020151815260200161064f8f85600b811061018357610183610bff565b81526020018e84600b811061066657610666610bff565b60200201516003602002015181526020018e84600b811061068957610689610bff565b60209081029190910151608001519091528254600180820185556000948552938290208351600590920201908155828201518051939491936106d3939285019291909101906107e3565b5060408201516002820155606082015180516106f99160038401916020909101906107e3565b50608082015180516107159160048401916020909101906107e3565b505050808061072390610bd9565b9150506105d9565b506040518060400160405280600b81526020016a1cdd58d8d95cdcd99d5b1b60aa1b81525099505050505050505050505b9392505050565b600081815b81518110156107dc57600082828151811061078557610785610bff565b016020015160f81c9050603081108015906107a1575060398111155b156107c9576107b1603082610b67565b6107bc85600a610b48565b6107c69190610b30565b93505b50806107d481610bd9565b915050610768565b5050919050565b8280546107ef90610b7e565b90600052602060002090601f0160209004810192826108115760008555610857565b82601f1061082a57805160ff1916838001178555610857565b82800160010185558215610857579182015b8281111561085757825182559160200191906001019061083c565b50610863929150610867565b5090565b5b808211156108635760008155600101610868565b80356001600160a01b038116811461089357600080fd5b919050565b6000602082840312156108aa57600080fd5b61075c8261087c565b6000806000606084860312156108c857600080fd5b6108d18461087c565b92506020840135915067ffffffffffffffff80604086013511156108f457600080fd5b6040850135850186601f82011261090a57600080fd5b610912610ab2565b8082896101608501111561092557600080fd5b60005b600b811015610a4d57858235111561093f57600080fd5b8a601f83358701011261095157600080fd5b610959610adc565b80833587018d60a08201111561096e57600080fd5b60005b6005811015610a3557898235111561098857600080fd5b8e601f833588358c0101011261099d57600080fd5b89823587358b01013511156109b4576109b4610c15565b6109ce86358a0183350135601f01601f1916602001610aff565b823587358b01013581528f6020843589358d01013585358a358e0101010111156109f757600080fd5b86358a0183350180359060209081019083013760006020843589358d0101358301015280855250602084019350602082019150600181019050610971565b50508552506020938401939190910190600101610928565b5050809450505050509250925092565b600060208083528351808285015260005b81811015610a8a57858101830151858201604001528201610a6e565b81811115610a9c576000604083870101525b50601f01601f1916929092016040019392505050565b604051610160810167ffffffffffffffff81118282101715610ad657610ad6610c15565b60405290565b60405160a0810167ffffffffffffffff81118282101715610ad657610ad6610c15565b604051601f8201601f1916810167ffffffffffffffff81118282101715610b2857610b28610c15565b604052919050565b60008219821115610b4357610b43610be9565b500190565b6000816000190483118215151615610b6257610b62610be9565b500290565b600082821015610b7957610b79610be9565b500390565b600181811c90821680610b9257607f821691505b60208210811415610bb357634e487b7160e01b600052602260045260246000fd5b50919050565b60006001600160ff1b03821415610bd257610bd2610be9565b5060010190565b6000600019821415610bd257610bd25b634e487b7160e01b600052601160045260246000fd5b634e487b7160e01b600052603260045260246000fd5b634e487b7160e01b600052604160045260246000fdfe746f74616c2073756d206f6620706f696e74732073686f756c64206265206c657373207468616e2031303074686572652073686f756c642062652061746c65617374206f6e65206b656570657261746c65617374203420626174746572732073686f756c6420626520746865726520696e636c7564696e67206b656570657220616e6420616c6c20726f756e6465727361746c65617374203420626f6c6c6572732073686f756c6420626520746865726520696e636c7564696e6720616c6c20726f756e64657273a264697066735822122083b2be647dbc11c61d992da50fa235b3d26861104d466974a1de0104eaf7d9d064736f6c63430008060033",
  "immutableReferences": {},
  "source": "// SPDX-License-Identifier: MIT\n\npragma solidity ^0.8.6;\n\ncontract User {\n\tstruct crickter {\n\t\tuint256 playerid;\n\t\tstring playerType;\n\t\tuint256 playerPoints;\n\t\tstring isCaptain;\n\t\tstring isVCaptain;\n\t}\n\tstruct teams {\n\t\tcrickter[] players;\n\t}\n\n\tstruct user {\n\t\taddress uid;\n\t\tmapping(uint256 => teams) createdTeams;\n\t}\n\tmapping(address => user) public users;\n\n\tfunction createUser(address _uid) public {\n\t\tuser storage usera = users[_uid];\n\t\tusera.uid = _uid;\n\t}\n\n\tfunction stringToUint(string memory s) private returns (uint256 result) {\n\t\tbytes memory b = bytes(s);\n\t\tuint256 i;\n\t\tresult = 0;\n\t\tfor (i = 0; i < b.length; i++) {\n\t\t\tuint256 c = uint256(uint8(b[i]));\n\n\t\t\tif (c >= 48 && c <= 57) {\n\t\t\t\tresult = result * 10 + (c - 48);\n\t\t\t}\n\t\t}\n\t}\n\n\tfunction createTeam(\n\t\taddress _uid,\n\t\tuint256 _matchid,\n\t\tstring[5][11] memory _players\n\t) public returns (string memory) {\n\t\tuser storage usera = users[_uid];\n\t\tif (usera.createdTeams[_matchid].players.length == 11) {\n\t\t\treturn \"team created previously\";\n\t\t}\n\t\tif (_players.length != 11) {\n\t\t\treturn \"team should have 11 players\";\n\t\t}\n\t\tuint256 battercount = 0;\n\t\tuint256 bollercount = 0;\n\t\tuint256 allroundercount = 0;\n\t\tuint256 keepercount = 0;\n\t\tuint256 totalpoints = 0;\n\t\tint256 captain = 0;\n\t\tint256 vcaptain = 0;\n\t\tfor (uint256 i = 0; i < _players.length; i++) {\n\t\t\ttotalpoints = totalpoints + stringToUint(_players[i][1]);\n\t\t\tif (stringToUint(_players[i][3]) == 1) {\n\t\t\t\tcaptain++;\n\t\t\t} else if (stringToUint(_players[i][4]) == 1) {\n\t\t\t\tvcaptain++;\n\t\t\t}\n\t\t\tif (keccak256(bytes(_players[i][0])) == keccak256(bytes(\"Batter\"))) {\n\t\t\t\tbattercount++;\n\t\t\t}\n\t\t\tif (keccak256(bytes(_players[i][0])) == keccak256(bytes(\"Boller\"))) {\n\t\t\t\tbollercount++;\n\t\t\t}\n\t\t\tif (keccak256(bytes(_players[i][0])) == keccak256(bytes(\"AllRounder\"))) {\n\t\t\t\tallroundercount++;\n\t\t\t}\n\t\t\tif (keccak256(bytes(_players[i][0])) == keccak256(bytes(\"Keeper\"))) {\n\t\t\t\tkeepercount++;\n\t\t\t} else {\n\t\t\t\treturn \"not valid player type\";\n\t\t\t}\n\t\t}\n\t\tif (totalpoints > 100) {\n\t\t\treturn \"total sum of points should be less than 100\";\n\t\t}\n\t\tif (battercount + allroundercount + keepercount < 4) {\n\t\t\treturn\n\t\t\t\t\"atleast 4 batters should be there including keeper and all rounders\";\n\t\t}\n\t\tif (bollercount + allroundercount < 4) {\n\t\t\treturn \"atleast 4 bollers should be there including all rounders\";\n\t\t}\n\t\tif (captain != 1) {\n\t\t\treturn \"there should be one captain\";\n\t\t}\n\t\tif (vcaptain != 1) {\n\t\t\treturn \"there should be one captain\";\n\t\t}\n\t\tif (keepercount < 1) {\n\t\t\treturn \"there should be atleast one keeper\";\n\t\t} else {\n\t\t\tteams storage tempteam = usera.createdTeams[_matchid];\n\t\t\tfor (uint256 i = 0; i < _players.length; i++) {\n\t\t\t\ttempteam.players.push(\n\t\t\t\t\tcrickter({\n\t\t\t\t\t\t\n\t\t\t\t\t\tplayerType: _players[i][0],\n\t\t\t\t\t\tplayerPoints: stringToUint(_players[i][1]),\n            playerid: stringToUint(_players[i][2]),\n\t\t\t\t\t\tisCaptain: _players[i][3],\n\t\t\t\t\t\tisVCaptain: _players[i][4]\n\t\t\t\t\t})\n\t\t\t\t);\n\t\t\t}\n\t\t\treturn \"successfull\";\n\t\t}\n\t}\n}\n\n// [ [\"Batter\",\"9\",\"1\",\"0\",\"1\"], [\"Boller\",\"9\",\"2\",\"0\",\"1\"], [\"Keeper\",\"9\",\"3\",\"0\",\"1\"], [\"Boller\",\"1\",\"4\",\"0\",\"1\"], [\"Boller\",\"1\",\"5\",\"0\",\"1\"], [\"Boller\",\"1\",\"6\",\"0\",\"1\"], [\"Batter\",\"9\",\"7\",\"0\",\"1\"], [\"Batter\",\"9\",\"8\",\"0\",\"1\"], [\"Batter\",\"9\",\"9\",\"0\",\"1\"], [\"Batter\",\"9\",\"10\",\"0\",\"1\"], [\"Batter\",\"9\",\"11\",\"0\",\"1\"] ]",
  "sourcePath": "/home/hardik_here/Documents/html_hacks_nasa/smart-contract/contracts/User.sol",
  "compiler": {
    "name": "solc",
    "version": "0.8.6+commit.11564f7e.Emscripten.clang"
  },
  "schemaVersion": "3.4.3",
  "updatedAt": "2021-10-31T03:25:01.322Z",
  "devdoc": {
    "kind": "dev",
    "methods": {},
    "version": 1
  },
  "userdoc": {
    "kind": "user",
    "methods": {},
    "version": 1
  }
}