{
  "contractName": "User",
  "abi": [
    {
      "inputs": [
        {
          "internalType": "address",
          "name": "",
          "type": "address"
        }
      ],
      "name": "users",
      "outputs": [
        {
          "internalType": "address",
          "name": "uid",
          "type": "address"
        }
      ],
      "stateMutability": "view",
      "type": "function",
      "constant": true
    },
    {
      "inputs": [
        {
          "internalType": "address",
          "name": "_uid",
          "type": "address"
        }
      ],
      "name": "createUser",
      "outputs": [],
      "stateMutability": "nonpayable",
      "type": "function"
    },
    {
      "inputs": [
        {
          "internalType": "uint256",
          "name": "_matchid",
          "type": "uint256"
        }
      ],
      "name": "getPoints",
      "outputs": [
        {
          "internalType": "uint256[]",
          "name": "",
          "type": "uint256[]"
        },
        {
          "internalType": "address[]",
          "name": "",
          "type": "address[]"
        }
      ],
      "stateMutability": "nonpayable",
      "type": "function"
    },
    {
      "inputs": [
        {
          "internalType": "uint256",
          "name": "_matchid",
          "type": "uint256"
        }
      ],
      "name": "givePrice",
      "outputs": [],
      "stateMutability": "nonpayable",
      "type": "function"
    },
    {
      "inputs": [
        {
          "internalType": "address",
          "name": "_uid",
          "type": "address"
        },
        {
          "internalType": "uint256",
          "name": "_matchid",
          "type": "uint256"
        },
        {
          "internalType": "string[5][11]",
          "name": "_players",
          "type": "string[5][11]"
        }
      ],
      "name": "createTeam",
      "outputs": [
        {
          "internalType": "string",
          "name": "",
          "type": "string"
        }
      ],
      "stateMutability": "payable",
      "type": "function",
      "payable": true
    }
  ],
  "bytecode": "0x608060405234801561001057600080fd5b506112a0806100206000396000f3fe60806040526004361061004a5760003560e01c80636bb9982b1461004f578063a87430ba14610078578063a967eee4146100c6578063cdd87618146100f4578063f6b04bdd1461018a575b600080fd5b61006261005d366004610d6d565b6101aa565b60405161006f9190610fb4565b60405180910390f35b34801561008457600080fd5b506100ae610093366004610d52565b6002602052600090815260409020546001600160a01b031681565b6040516001600160a01b03909116815260200161006f565b3480156100d257600080fd5b506100e66100e1366004610f17565b61085b565b60405161006f929190610f30565b34801561010057600080fd5b5061018861010f366004610d52565b6001600160a01b03166000818152600260209081526040822080546001600160a01b031990811685179091559082905260008051602061124b833981519152805460018101825592527ff0df3dcda05b4fbd9c655cde3d5ceb211e019e72ec816e127a59e7195f2cd7f590910180549091169091179055565b005b34801561019657600080fd5b506101886101a5366004610f17565b610a16565b6001600160a01b0383166000908152600260209081526040808320858452600181019092529091205460609190600b141561021a57505060408051808201909152601781527f7465616d20637265617465642070726576696f75736c790000000000000000006020820152610854565b6000806000806000806000805b600b81101561050d576102578b82600b811061024557610245611156565b602002015160015b6020020151610c1d565b6102619085611087565b93506102848b82600b811061027857610278611156565b6020020151600361024d565b6001141561029e578261029681611110565b9350506102d5565b6102bf8b82600b81106102b3576102b3611156565b6020020151600461024d565b600114156102d557816102d181611110565b9250505b6040805180820190915260068152652130ba3a32b960d11b6020909101527f0e5413dafc05cd2faa15659240c51e738dd49afe24a99eb59a92c2225f8db8e58b82600b811061032657610326611156565b60200201516000602002015180519060200120141561034d578761034981611130565b9850505b6040805180820190915260068152652137b63632b960d11b6020909101527f4f77ece33a22507cb138f8f62145caeaff0e57cd0c5df0d8db125565fd720c008b82600b811061039e5761039e611156565b6020020151600060200201518051906020012014156103c557866103c181611130565b9750505b60408051808201909152600a81526920b6362937bab73232b960b11b6020909101527f977c547bab111247f698d35fe6aee5d806e009624d686b49d2f85f27a389e41f8b82600b811061041a5761041a611156565b602002015160006020020151805190602001201415610441578561043d81611130565b9650505b60408051808201909152600681526525b2b2b832b960d11b6020909101527f4f78afe9dfc9a0cb0441c27b9405070cd2a48b490636a7bdd09f355e33a5d7de8b82600b811061049257610492611156565b6020020151600060200201518051906020012014156104bd57846104b581611130565b9550506104fb565b604051806040016040528060158152602001746e6f742076616c696420706c61796572207479706560581b8152509950505050505050505050610854565b8061050581611130565b915050610227565b50606483111561053f576040518060600160405280602b8152602001611183602b913998505050505050505050610854565b60048461054c878a611087565b6105569190611087565b1015610584576040518060800160405280604381526020016111d06043913998505050505050505050610854565b60046105908688611087565b10156105be576040518060600160405280603881526020016112136038913998505050505050505050610854565b8160011461060b576040518060400160405280601b81526020017f74686572652073686f756c64206265206f6e65206361707461696e000000000081525098505050505050505050610854565b80600114610658576040518060400160405280601b81526020017f74686572652073686f756c64206265206f6e65206361707461696e000000000081525098505050505050505050610854565b6001841015610689576040518060600160405280602281526020016111ae6022913998505050505050505050610854565b60008b81526001890160205260408120905b600b8110156107ed57816000016040518060a001604052806106d48f85600b81106106c8576106c8611156565b6020020151600261024d565b81526020018e84600b81106106eb576106eb611156565b60200201516000602002015181526020016107118f85600b811061024557610245611156565b81526020018e84600b811061072857610728611156565b60200201516003602002015181526020018e84600b811061074b5761074b611156565b602090810291909101516080015190915282546001808201855560009485529382902083516005909202019081558282015180519394919361079593928501929190910190610c9d565b5060408201516002820155606082015180516107bb916003840191602090910190610c9d565b50608082015180516107d7916004840191602090910190610c9d565b50505080806107e590611130565b91505061069b565b50600060018083018290558d8252602052604090205461080d9034611087565b600160008e8152602001908152602001600020819055506040518060400160405280600b81526020016a1cdd58d8d95cdcd99d5b1b60aa1b81525099505050505050505050505b9392505050565b600080805260205260008051602061124b83398151915254606090819061088157600080fd5b6000808052602081815260008051602061124b83398151915280546040805182850281018501909152818152928301828280156108e757602002820191906000526020600020905b81546001600160a01b031681526001909101906020018083116108c9575b5050505050905060608060005b83518111610a0a576000808052602081905260008051602061124b833981519152805460029183918590811061092c5761092c611156565b60009182526020808320909101546001600160a01b0316835282810193909352604091820181208b8252600190810190935220015411156109f857600083828151811061097b5761097b611156565b602002602001015190508084838151811061099857610998611156565b60200260200101818152505060008383815181106109b8576109b8611156565b60200260200101519050808484815181106109d5576109d5611156565b60200260200101906001600160a01b031690816001600160a01b03168152505050505b80610a0281611130565b9150506108f4565b50909590945092505050565b600080805260205260008051602061124b83398151915254610a3757600080fd5b6000808052602081815260008051602061124b8339815191528054604080518285028101850190915281815292830182828015610a9d57602002820191906000526020600020905b81546001600160a01b03168152600190910190602001808311610a7f575b505050505090506000806000905060005b83518111610bdc576000808052602081905260008051602061124b83398151915280548492600292909185908110610ae857610ae8611156565b60009182526020808320909101546001600160a01b031683528281019390935260409182018120898252600190810190935220015410610bca57600080805260205260008051602061124b833981519152805482908110610b4b57610b4b611156565b60009182526020808320909101548280529082905260008051602061124b83398151915280546001600160a01b0390921695506002929184908110610b9257610b92611156565b60009182526020808320909101546001600160a01b031683528281019390935260409182018120888252600190810190935220015491505b80610bd481611130565b915050610aae565b506040516001600160a01b03831690600090670de0b6b3a76400009082818181858883f19350505050158015610c16573d6000803e3d6000fd5b5050505050565b600081815b8151811015610c96576000828281518110610c3f57610c3f611156565b016020015160f81c905060308110801590610c5b575060398111155b15610c8357610c6b6030826110be565b610c7685600a61109f565b610c809190611087565b93505b5080610c8e81611130565b915050610c22565b5050919050565b828054610ca9906110d5565b90600052602060002090601f016020900481019282610ccb5760008555610d11565b82601f10610ce457805160ff1916838001178555610d11565b82800160010185558215610d11579182015b82811115610d11578251825591602001919060010190610cf6565b50610d1d929150610d21565b5090565b5b80821115610d1d5760008155600101610d22565b80356001600160a01b0381168114610d4d57600080fd5b919050565b600060208284031215610d6457600080fd5b61085482610d36565b600080600060608486031215610d8257600080fd5b610d8b84610d36565b92506020840135915067ffffffffffffffff8060408601351115610dae57600080fd5b6040850135850186601f820112610dc457600080fd5b610dcc611009565b80828961016085011115610ddf57600080fd5b60005b600b811015610f07578582351115610df957600080fd5b8a601f833587010112610e0b57600080fd5b610e13611033565b80833587018d60a082011115610e2857600080fd5b60005b6005811015610eef578982351115610e4257600080fd5b8e601f833588358c01010112610e5757600080fd5b89823587358b0101351115610e6e57610e6e61116c565b610e8886358a0183350135601f01601f1916602001611056565b823587358b01013581528f6020843589358d01013585358a358e010101011115610eb157600080fd5b86358a0183350180359060209081019083013760006020843589358d0101358301015280855250602084019350602082019150600181019050610e2b565b50508552506020938401939190910190600101610de2565b5050809450505050509250925092565b600060208284031215610f2957600080fd5b5035919050565b604080825283519082018190526000906020906060840190828701845b82811015610f6957815184529284019290840190600101610f4d565b5050508381038285015284518082528583019183019060005b81811015610fa75783516001600160a01b031683529284019291840191600101610f82565b5090979650505050505050565b600060208083528351808285015260005b81811015610fe157858101830151858201604001528201610fc5565b81811115610ff3576000604083870101525b50601f01601f1916929092016040019392505050565b604051610160810167ffffffffffffffff8111828210171561102d5761102d61116c565b60405290565b60405160a0810167ffffffffffffffff8111828210171561102d5761102d61116c565b604051601f8201601f1916810167ffffffffffffffff8111828210171561107f5761107f61116c565b604052919050565b6000821982111561109a5761109a611140565b500190565b60008160001904831182151516156110b9576110b9611140565b500290565b6000828210156110d0576110d0611140565b500390565b600181811c908216806110e957607f821691505b6020821081141561110a57634e487b7160e01b600052602260045260246000fd5b50919050565b60006001600160ff1b0382141561112957611129611140565b5060010190565b6000600019821415611129576111295b634e487b7160e01b600052601160045260246000fd5b634e487b7160e01b600052603260045260246000fd5b634e487b7160e01b600052604160045260246000fdfe746f74616c2073756d206f6620706f696e74732073686f756c64206265206c657373207468616e2031303074686572652073686f756c642062652061746c65617374206f6e65206b656570657261746c65617374203420626174746572732073686f756c6420626520746865726520696e636c7564696e67206b656570657220616e6420616c6c20726f756e6465727361746c65617374203420626f6c6c6572732073686f756c6420626520746865726520696e636c7564696e6720616c6c20726f756e64657273ad3228b676f7d3cd4284a5443f17f1962b36e491b30a40b2405849e597ba5fb5a2646970667358221220c1250527add8932ff0aae6a5a6c11b9e21c31655254b95243c060580a5910cae64736f6c63430008060033",
  "immutableReferences": {},
  "source": "// SPDX-License-Identifier: MIT\n\npragma solidity ^0.8.6;\n\ncontract User {\n    struct crickter {\n        uint256 playerid;\n        string playerType;\n        uint256 playerPoints;\n        string isCaptain;\n        string isVCaptain;\n    }\n    struct teams {\n        crickter[] players;\n        uint256 matchPoints;\n    }\n\n    struct user {\n        address uid;\n        mapping(uint256 => teams) createdTeams;\n    }\n    mapping(uint256 => address[]) private allusers;\n    mapping(uint256 => uint256) private totalPool;\n    mapping(address => user) public users;\n\n    function createUser(address _uid) public {\n        user storage usera = users[_uid];\n        usera.uid = _uid;\n        allusers[0].push(_uid);\n    }\n\n    function stringToUint(string memory s) private returns (uint256 result) {\n        bytes memory b = bytes(s);\n        uint256 i;\n        result = 0;\n        for (i = 0; i < b.length; i++) {\n            uint256 c = uint256(uint8(b[i]));\n\n            if (c >= 48 && c <= 57) {\n                result = result * 10 + (c - 48);\n            }\n        }\n    }\n\n    function getPoints(uint256 _matchid)\n        public\n        returns (uint256[] memory, address[] memory)\n    {\n        require(allusers[0].length > 0);\n        address[] memory temp = allusers[0];\n        uint256[] memory ans;\n        address[] memory ansa;\n        for (uint256 i = 0; i <= temp.length; i++) {\n            if (users[allusers[0][i]].createdTeams[_matchid].matchPoints > 0) {\n                uint256 _att = ans[i];\n                ans[i] = _att;\n                address payable _address = payable(ansa[i]);\n                ansa[i] = _address;\n            }\n        }\n        return (ans, ansa);\n    }\n\n    function givePrice(uint256 _matchid) public  {\n        require(allusers[0].length > 0);\n        address[] memory temp = allusers[0];\n        address payable winner;\n        uint256 currentpoints = 0;\n        for (uint256 i = 0; i <= temp.length; i++) {\n            if (\n                users[allusers[0][i]].createdTeams[_matchid].matchPoints >=\n                currentpoints\n            ) {\n                winner = payable(allusers[0][i]);\n                currentpoints = users[allusers[0][i]]\n                    .createdTeams[_matchid]\n                    .matchPoints;\n            }\n        }\n        winner.transfer(1000000000000000000);\n    }\n\n    function createTeam(\n        address _uid,\n        uint256 _matchid,\n        string[5][11] memory _players\n    ) public payable returns (string memory) {\n        user storage usera = users[_uid];\n        if (usera.createdTeams[_matchid].players.length == 11) {\n            return \"team created previously\";\n        }\n        if (_players.length != 11) {\n            return \"team should have 11 players\";\n        }\n        uint256 battercount = 0;\n        uint256 bollercount = 0;\n        uint256 allroundercount = 0;\n        uint256 keepercount = 0;\n        uint256 totalpoints = 0;\n        int256 captain = 0;\n        int256 vcaptain = 0;\n        for (uint256 i = 0; i < _players.length; i++) {\n            totalpoints = totalpoints + stringToUint(_players[i][1]);\n            if (stringToUint(_players[i][3]) == 1) {\n                captain++;\n            } else if (stringToUint(_players[i][4]) == 1) {\n                vcaptain++;\n            }\n            if (\n                keccak256(bytes(_players[i][0])) == keccak256(bytes(\"Batter\"))\n            ) {\n                battercount++;\n            }\n            if (\n                keccak256(bytes(_players[i][0])) == keccak256(bytes(\"Boller\"))\n            ) {\n                bollercount++;\n            }\n            if (\n                keccak256(bytes(_players[i][0])) ==\n                keccak256(bytes(\"AllRounder\"))\n            ) {\n                allroundercount++;\n            }\n            if (\n                keccak256(bytes(_players[i][0])) == keccak256(bytes(\"Keeper\"))\n            ) {\n                keepercount++;\n            } else {\n                return \"not valid player type\";\n            }\n        }\n        if (totalpoints > 100) {\n            return \"total sum of points should be less than 100\";\n        }\n        if (battercount + allroundercount + keepercount < 4) {\n            return\n                \"atleast 4 batters should be there including keeper and all rounders\";\n        }\n        if (bollercount + allroundercount < 4) {\n            return \"atleast 4 bollers should be there including all rounders\";\n        }\n        if (captain != 1) {\n            return \"there should be one captain\";\n        }\n        if (vcaptain != 1) {\n            return \"there should be one captain\";\n        }\n        if (keepercount < 1) {\n            return \"there should be atleast one keeper\";\n        }\n        teams storage tempteam = usera.createdTeams[_matchid];\n        for (uint256 i = 0; i < _players.length; i++) {\n            tempteam.players.push(\n                crickter({\n                    playerType: _players[i][0],\n                    playerPoints: stringToUint(_players[i][1]),\n                    playerid: stringToUint(_players[i][2]),\n                    isCaptain: _players[i][3],\n                    isVCaptain: _players[i][4]\n                })\n            );\n        }\n        tempteam.matchPoints = 0;\n        totalPool[_matchid] = msg.value + totalPool[_matchid];\n        return \"successfull\";\n    }\n}\n",
  "sourcePath": "/home/hardik_here/Documents/html_hacks_nasa/src/smart-contract/contracts/User.sol",
  "compiler": {
    "name": "solc",
    "version": "0.8.6+commit.11564f7e.Emscripten.clang"
  },
  "schemaVersion": "3.4.3",
  "updatedAt": "2021-10-31T11:23:47.452Z",
  "networkType": "ethereum",
  "devdoc": {
    "kind": "dev",
    "methods": {},
    "version": 1
  },
  "userdoc": {
    "kind": "user",
    "methods": {},
    "version": 1
  }
}