{
  "contractName": "User",
  "abi": [
    {
      "inputs": [
        {
          "internalType": "address",
          "name": "",
          "type": "address"
        }
      ],
      "name": "users",
      "outputs": [
        {
          "internalType": "address",
          "name": "uid",
          "type": "address"
        }
      ],
      "stateMutability": "view",
      "type": "function",
      "constant": true
    },
    {
      "inputs": [
        {
          "internalType": "address",
          "name": "_uid",
          "type": "address"
        }
      ],
      "name": "createUser",
      "outputs": [],
      "stateMutability": "nonpayable",
      "type": "function"
    },
    {
      "inputs": [
        {
          "internalType": "uint256",
          "name": "_matchid",
          "type": "uint256"
        }
      ],
      "name": "getPoints",
      "outputs": [
        {
          "internalType": "uint256[]",
          "name": "",
          "type": "uint256[]"
        },
        {
          "internalType": "address[]",
          "name": "",
          "type": "address[]"
        }
      ],
      "stateMutability": "nonpayable",
      "type": "function"
    },
    {
      "inputs": [
        {
          "internalType": "uint256",
          "name": "_matchid",
          "type": "uint256"
        }
      ],
      "name": "givePrice",
      "outputs": [
        {
          "internalType": "string",
          "name": "",
          "type": "string"
        }
      ],
      "stateMutability": "nonpayable",
      "type": "function"
    },
    {
      "inputs": [
        {
          "internalType": "address",
          "name": "_uid",
          "type": "address"
        },
        {
          "internalType": "uint256",
          "name": "_matchid",
          "type": "uint256"
        },
        {
          "internalType": "string[5][11]",
          "name": "_players",
          "type": "string[5][11]"
        }
      ],
      "name": "createTeam",
      "outputs": [
        {
          "internalType": "string",
          "name": "",
          "type": "string"
        }
      ],
      "stateMutability": "payable",
      "type": "function",
      "payable": true
    }
  ],
  "bytecode": "0x608060405234801561001057600080fd5b506112b0806100206000396000f3fe60806040526004361061004a5760003560e01c80636bb9982b1461004f578063a87430ba14610078578063a967eee4146100c6578063cdd87618146100f4578063f6b04bdd1461018a575b600080fd5b61006261005d366004610d7d565b6101aa565b60405161006f9190610fc4565b60405180910390f35b34801561008457600080fd5b506100ae610093366004610d62565b6002602052600090815260409020546001600160a01b031681565b6040516001600160a01b03909116815260200161006f565b3480156100d257600080fd5b506100e66100e1366004610f27565b61085b565b60405161006f929190610f40565b34801561010057600080fd5b5061018861010f366004610d62565b6001600160a01b03166000818152600260209081526040822080546001600160a01b031990811685179091559082905260008051602061125b833981519152805460018101825592527ff0df3dcda05b4fbd9c655cde3d5ceb211e019e72ec816e127a59e7195f2cd7f590910180549091169091179055565b005b34801561019657600080fd5b506100626101a5366004610f27565b610a16565b6001600160a01b0383166000908152600260209081526040808320858452600181019092529091205460609190600b141561021a57505060408051808201909152601781527f7465616d20637265617465642070726576696f75736c790000000000000000006020820152610854565b6000806000806000806000805b600b81101561050d576102578b82600b811061024557610245611166565b602002015160015b6020020151610c2d565b6102619085611097565b93506102848b82600b811061027857610278611166565b6020020151600361024d565b6001141561029e578261029681611120565b9350506102d5565b6102bf8b82600b81106102b3576102b3611166565b6020020151600461024d565b600114156102d557816102d181611120565b9250505b6040805180820190915260068152652130ba3a32b960d11b6020909101527f0e5413dafc05cd2faa15659240c51e738dd49afe24a99eb59a92c2225f8db8e58b82600b811061032657610326611166565b60200201516000602002015180519060200120141561034d578761034981611140565b9850505b6040805180820190915260068152652137b63632b960d11b6020909101527f4f77ece33a22507cb138f8f62145caeaff0e57cd0c5df0d8db125565fd720c008b82600b811061039e5761039e611166565b6020020151600060200201518051906020012014156103c557866103c181611140565b9750505b60408051808201909152600a81526920b6362937bab73232b960b11b6020909101527f977c547bab111247f698d35fe6aee5d806e009624d686b49d2f85f27a389e41f8b82600b811061041a5761041a611166565b602002015160006020020151805190602001201415610441578561043d81611140565b9650505b60408051808201909152600681526525b2b2b832b960d11b6020909101527f4f78afe9dfc9a0cb0441c27b9405070cd2a48b490636a7bdd09f355e33a5d7de8b82600b811061049257610492611166565b6020020151600060200201518051906020012014156104bd57846104b581611140565b9550506104fb565b604051806040016040528060158152602001746e6f742076616c696420706c61796572207479706560581b8152509950505050505050505050610854565b8061050581611140565b915050610227565b50606483111561053f576040518060600160405280602b8152602001611193602b913998505050505050505050610854565b60048461054c878a611097565b6105569190611097565b1015610584576040518060800160405280604381526020016111e06043913998505050505050505050610854565b60046105908688611097565b10156105be576040518060600160405280603881526020016112236038913998505050505050505050610854565b8160011461060b576040518060400160405280601b81526020017f74686572652073686f756c64206265206f6e65206361707461696e000000000081525098505050505050505050610854565b80600114610658576040518060400160405280601b81526020017f74686572652073686f756c64206265206f6e65206361707461696e000000000081525098505050505050505050610854565b6001841015610689576040518060600160405280602281526020016111be6022913998505050505050505050610854565b60008b81526001890160205260408120905b600b8110156107ed57816000016040518060a001604052806106d48f85600b81106106c8576106c8611166565b6020020151600261024d565b81526020018e84600b81106106eb576106eb611166565b60200201516000602002015181526020016107118f85600b811061024557610245611166565b81526020018e84600b811061072857610728611166565b60200201516003602002015181526020018e84600b811061074b5761074b611166565b602090810291909101516080015190915282546001808201855560009485529382902083516005909202019081558282015180519394919361079593928501929190910190610cad565b5060408201516002820155606082015180516107bb916003840191602090910190610cad565b50608082015180516107d7916004840191602090910190610cad565b50505080806107e590611140565b91505061069b565b50600060018083018290558d8252602052604090205461080d9034611097565b600160008e8152602001908152602001600020819055506040518060400160405280600b81526020016a1cdd58d8d95cdcd99d5b1b60aa1b81525099505050505050505050505b9392505050565b600080805260205260008051602061125b83398151915254606090819061088157600080fd5b6000808052602081815260008051602061125b83398151915280546040805182850281018501909152818152928301828280156108e757602002820191906000526020600020905b81546001600160a01b031681526001909101906020018083116108c9575b5050505050905060608060005b83518111610a0a576000808052602081905260008051602061125b833981519152805460029183918590811061092c5761092c611166565b60009182526020808320909101546001600160a01b0316835282810193909352604091820181208b8252600190810190935220015411156109f857600083828151811061097b5761097b611166565b602002602001015190508084838151811061099857610998611166565b60200260200101818152505060008383815181106109b8576109b8611166565b60200260200101519050808484815181106109d5576109d5611166565b60200260200101906001600160a01b031690816001600160a01b03168152505050505b80610a0281611140565b9150506108f4565b50909590945092505050565b600080805260205260008051602061125b83398151915254606090610a3a57600080fd5b6000808052602081815260008051602061125b8339815191528054604080518285028101850190915281815292830182828015610aa057602002820191906000526020600020905b81546001600160a01b03168152600190910190602001808311610a82575b505050505090506000806000905060005b83518111610be0576000808052602081905260008051602061125b83398151915280548492600292909185908110610aeb57610aeb611166565b60009182526020808320909101546001600160a01b0316835282810193909352604091820181208a825260019081019093522001541115610bce57600080805260205260008051602061125b833981519152805482908110610b4f57610b4f611166565b60009182526020808320909101548280529082905260008051602061125b83398151915280546001600160a01b0390921695506002929184908110610b9657610b96611166565b60009182526020808320909101546001600160a01b031683528281019390935260409182018120898252600190810190935220015491505b80610bd881611140565b915050610ab1565b506000858152600160205260408082205490516001600160a01b0385169282156108fc02929190818181858888f19350505050158015610c24573d6000803e3d6000fd5b50505050919050565b600081815b8151811015610ca6576000828281518110610c4f57610c4f611166565b016020015160f81c905060308110801590610c6b575060398111155b15610c9357610c7b6030826110ce565b610c8685600a6110af565b610c909190611097565b93505b5080610c9e81611140565b915050610c32565b5050919050565b828054610cb9906110e5565b90600052602060002090601f016020900481019282610cdb5760008555610d21565b82601f10610cf457805160ff1916838001178555610d21565b82800160010185558215610d21579182015b82811115610d21578251825591602001919060010190610d06565b50610d2d929150610d31565b5090565b5b80821115610d2d5760008155600101610d32565b80356001600160a01b0381168114610d5d57600080fd5b919050565b600060208284031215610d7457600080fd5b61085482610d46565b600080600060608486031215610d9257600080fd5b610d9b84610d46565b92506020840135915067ffffffffffffffff8060408601351115610dbe57600080fd5b6040850135850186601f820112610dd457600080fd5b610ddc611019565b80828961016085011115610def57600080fd5b60005b600b811015610f17578582351115610e0957600080fd5b8a601f833587010112610e1b57600080fd5b610e23611043565b80833587018d60a082011115610e3857600080fd5b60005b6005811015610eff578982351115610e5257600080fd5b8e601f833588358c01010112610e6757600080fd5b89823587358b0101351115610e7e57610e7e61117c565b610e9886358a0183350135601f01601f1916602001611066565b823587358b01013581528f6020843589358d01013585358a358e010101011115610ec157600080fd5b86358a0183350180359060209081019083013760006020843589358d0101358301015280855250602084019350602082019150600181019050610e3b565b50508552506020938401939190910190600101610df2565b5050809450505050509250925092565b600060208284031215610f3957600080fd5b5035919050565b604080825283519082018190526000906020906060840190828701845b82811015610f7957815184529284019290840190600101610f5d565b5050508381038285015284518082528583019183019060005b81811015610fb75783516001600160a01b031683529284019291840191600101610f92565b5090979650505050505050565b600060208083528351808285015260005b81811015610ff157858101830151858201604001528201610fd5565b81811115611003576000604083870101525b50601f01601f1916929092016040019392505050565b604051610160810167ffffffffffffffff8111828210171561103d5761103d61117c565b60405290565b60405160a0810167ffffffffffffffff8111828210171561103d5761103d61117c565b604051601f8201601f1916810167ffffffffffffffff8111828210171561108f5761108f61117c565b604052919050565b600082198211156110aa576110aa611150565b500190565b60008160001904831182151516156110c9576110c9611150565b500290565b6000828210156110e0576110e0611150565b500390565b600181811c908216806110f957607f821691505b6020821081141561111a57634e487b7160e01b600052602260045260246000fd5b50919050565b60006001600160ff1b0382141561113957611139611150565b5060010190565b6000600019821415611139576111395b634e487b7160e01b600052601160045260246000fd5b634e487b7160e01b600052603260045260246000fd5b634e487b7160e01b600052604160045260246000fdfe746f74616c2073756d206f6620706f696e74732073686f756c64206265206c657373207468616e2031303074686572652073686f756c642062652061746c65617374206f6e65206b656570657261746c65617374203420626174746572732073686f756c6420626520746865726520696e636c7564696e67206b656570657220616e6420616c6c20726f756e6465727361746c65617374203420626f6c6c6572732073686f756c6420626520746865726520696e636c7564696e6720616c6c20726f756e64657273ad3228b676f7d3cd4284a5443f17f1962b36e491b30a40b2405849e597ba5fb5a26469706673582212208c5ba62c374fa0e77c4a19ade787991f18c54cf2325931d175469b4c8fa2001564736f6c63430008060033",
  "immutableReferences": {},
  "source": "// SPDX-License-Identifier: MIT\n\npragma solidity ^0.8.6;\n\ncontract User {\n    \n    struct crickter {\n        uint256 playerid;\n        string playerType;\n        uint256 playerPoints;\n        string isCaptain;\n        string isVCaptain;\n    }\n    struct teams {\n        crickter[] players;\n        uint256 matchPoints;\n    }\n\n    struct user {\n        address uid;\n        mapping(uint256 => teams) createdTeams;\n    }\n\t\tmapping(uint256 => address[]) private allusers;\n    mapping(uint256 => uint256) private totalPool;\n\t\tmapping(address => user) public users;\n\n    function createUser(address _uid) public {\n        user storage usera = users[_uid];\n        usera.uid = _uid;\n\t\t\t\tallusers[0].push(_uid);\n    }\n\n    function stringToUint(string memory s) private returns (uint256 result) {\n        bytes memory b = bytes(s);\n        uint256 i;\n        result = 0;\n        for (i = 0; i < b.length; i++) {\n            uint256 c = uint256(uint8(b[i]));\n\n            if (c >= 48 && c <= 57) {\n                result = result * 10 + (c - 48);\n            }\n        }\n    }\n\t\t\n\n\t\tfunction getPoints(uint256 _matchid) public returns (uint[] memory ,address[] memory ){\n\t\t\t\t \trequire (allusers[0].length > 0);\n\t\t\t\t \taddress[] memory temp=allusers[0];\n\t\t\t\t\tuint[] memory ans;\n\t\t\t\t\taddress[] memory ansa;\n\t\t\t\t\tfor(uint256 i=0; i<= temp.length; i++){\n\t\t\t\t\t\tif(users[allusers[0][i]].createdTeams[_matchid].matchPoints>0){\n\t\t\t\t\t\t\tuint  _att = ans[i];\n      \t\t\t\tans[i] = _att;\n\t\t\t\t\t\t\taddress payable _address = payable(ansa[i]);\n      \t\t\t\tansa[i] = _address;\n\t\t\t\t\t\t\n\t\t\t\t\t\t}\n\t\t\t\t\t}\n    \t\t\treturn (ans,ansa);\n\t\t}\n\n\t\tfunction givePrice(uint256 _matchid) public returns (string memory){\n\t\t\t\t \trequire (allusers[0].length > 0);\n\t\t\t\t \taddress[] memory temp=allusers[0];\n\t\t\t\t\taddress payable winner;\n\t\t\t\t\tuint256 currentpoints=0;\n\t\t\t\t\tfor(uint256 i=0; i<= temp.length; i++){\n\t\t\t\t\t\tif(users[allusers[0][i]].createdTeams[_matchid].matchPoints>currentpoints){\n\t\t\t\t\t\t\twinner =payable(allusers[0][i]);\n\t\t\t\t\t\t\tcurrentpoints=users[allusers[0][i]].createdTeams[_matchid].matchPoints;\n\t\t\t\t\t\t}\n\t\t\t\t\t}\n\t\t\t\t\twinner.transfer(totalPool[_matchid]);\n\t\t}\n\n    function createTeam(\n        address _uid,\n        uint256 _matchid,\n        string[5][11] memory _players\n    ) public payable returns (string memory) {\n        user storage usera = users[_uid];\n        if (usera.createdTeams[_matchid].players.length == 11) {\n            return \"team created previously\";\n        }\n        if (_players.length != 11) {\n            return \"team should have 11 players\";\n        }\n        uint256 battercount = 0;\n        uint256 bollercount = 0;\n        uint256 allroundercount = 0;\n        uint256 keepercount = 0;\n        uint256 totalpoints = 0;\n        int256 captain = 0;\n        int256 vcaptain = 0;\n        for (uint256 i = 0; i < _players.length; i++) {\n            totalpoints = totalpoints + stringToUint(_players[i][1]);\n            if (stringToUint(_players[i][3]) == 1) {\n                captain++;\n            } else if (stringToUint(_players[i][4]) == 1) {\n                vcaptain++;\n            }\n            if (\n                keccak256(bytes(_players[i][0])) == keccak256(bytes(\"Batter\"))\n            ) {\n                battercount++;\n            }\n            if (\n                keccak256(bytes(_players[i][0])) == keccak256(bytes(\"Boller\"))\n            ) {\n                bollercount++;\n            }\n            if (\n                keccak256(bytes(_players[i][0])) ==\n                keccak256(bytes(\"AllRounder\"))\n            ) {\n                allroundercount++;\n            }\n            if (\n                keccak256(bytes(_players[i][0])) == keccak256(bytes(\"Keeper\"))\n            ) {\n                keepercount++;\n            } else {\n                return \"not valid player type\";\n            }\n        }\n        if (totalpoints > 100) {\n            return \"total sum of points should be less than 100\";\n        }\n        if (battercount + allroundercount + keepercount < 4) {\n            return\n                \"atleast 4 batters should be there including keeper and all rounders\";\n        }\n        if (bollercount + allroundercount < 4) {\n            return \"atleast 4 bollers should be there including all rounders\";\n        }\n        if (captain != 1) {\n            return \"there should be one captain\";\n        }\n        if (vcaptain != 1) {\n            return \"there should be one captain\";\n        }\n        if (keepercount < 1) {\n            return \"there should be atleast one keeper\";\n        } \n            teams storage tempteam = usera.createdTeams[_matchid];\n            for (uint256 i = 0; i < _players.length; i++) {\n                tempteam.players.push(\n                    crickter({\n                        playerType: _players[i][0],\n                        playerPoints: stringToUint(_players[i][1]),\n                        playerid: stringToUint(_players[i][2]),\n                        isCaptain: _players[i][3],\n                        isVCaptain: _players[i][4]\n                    })\n                );\n            }\n            tempteam.matchPoints = 0;\n            totalPool[_matchid] = msg.value + totalPool[_matchid];\n            return \"successfull\";\n        \n    }\n}\n",
  "sourcePath": "/home/hardik_here/Documents/html_hacks_nasa/src/smart-contract/contracts/User.sol",
  "compiler": {
    "name": "solc",
    "version": "0.8.6+commit.11564f7e.Emscripten.clang"
  },
  "schemaVersion": "3.4.3",
  "updatedAt": "2021-10-31T11:00:33.117Z",
  "networkType": "ethereum",
  "devdoc": {
    "kind": "dev",
    "methods": {},
    "version": 1
  },
  "userdoc": {
    "kind": "user",
    "methods": {},
    "version": 1
  }
}